:100000000C942A000C943C000C943C000C943C0092
:100010000C943C000C943C000C943C000C943C0070
:100020000C943C000C943C000C943C000C94A600F6
:100030000C943C000C943C000C943C000C943C0050
:100040000C943C000C943C000C943C000C943C0040
:100050000C943C0011241FBECFE5D8E0DEBFCDBF1D
:1000600010E0A0E6B0E001C01D92AB36B107E1F7A9
:100070000E94F4060C940D070C940000DF93CF93BC
:10008000CDB7DEB7E3E5F0E01082A9E5B0E0E9E541
:10009000F0E0808181608C93CF91DF910895DF93B0
:1000A000CF9300D000D000D0CDB7DEB769837A837C
:1000B0008B839C835E834D8389819A81AB81BC81D4
:1000C0008093670090936800A0936900B0936A00E2
:1000D0008D819E8190936600809365000E948900C7
:1000E00026960FB6F894DEBF0FBECDBFCF91DF913D
:1000F0000895DF93CF9300D0CDB7DEB79A8389837D
:10010000E2E5F0E0898180830F900F90CF91DF913D
:100110000895DF93CF93CDB7DEB7A3E5B0E0E3E575
:10012000F0E08081887F82608C93CF91DF91089589
:10013000DF93CF93CDB7DEB7A3E5B0E0E3E5F0E022
:100140008081887F8C93CF91DF9108951F920F92C9
:100150000FB60F9211242F933F934F935F936F939A
:100160007F938F939F93AF93BF93EF93FF93DF930F
:10017000CF93CDB7DEB78091600090916100A091E0
:100180006200B09163000196A11DB11D80936000D3
:1001900090936100A0936200B0936300209160008F
:1001A000309161004091620050916300809167003E
:1001B00090916800A0916900B0916A0028173907F2
:1001C0004A075B0769F4E0916500F09166000995C4
:1001D0001092600010926100109262001092630011
:1001E000CF91DF91FF91EF91BF91AF919F918F914F
:1001F0007F916F915F914F913F912F910F900FBE23
:100200000F901F901895DF93CF93CDB7DEB72A9745
:100210000FB6F894DEBF0FBECDBF89836A83898194
:10022000282F30E03A87298789859A858130910582
:1002300009F466C029853A852230310509F4BBC02E
:1002400089859A85009709F0D5C08A81282F30E0EA
:1002500038872F838F8198858130910521F12F81F7
:100260003885223031052CF48F819885009761F014
:10027000C1C02F8138852230310521F18F819885C9
:100280008330910571F1B6C0A5E5B0E0E5E5F0E099
:1002900080818E7F8C93A5E5B0E0E5E5F0E080817C
:1002A0008D7F8C93A7C0A5E5B0E0E5E5F0E0808107
:1002B00081608C93A5E5B0E0E5E5F0E080818D7F7D
:1002C0008C9398C0A5E5B0E0E5E5F0E080818E7FF5
:1002D0008C93A5E5B0E0E5E5F0E0808182608C9349
:1002E00089C0A5E5B0E0E5E5F0E0808181608C9310
:1002F000A5E5B0E0E5E5F0E0808182608C937AC00E
:100300008A81282F30E03E832D838D819E8181302C
:10031000910521F12D813E81223031052CF48D8112
:100320009E81009761F066C02D813E8122303105AB
:1003300021F18D819E818330910571F15BC0A5E52E
:10034000B0E0E5E5F0E080818B7F8C93A5E5B0E03F
:10035000E5E5F0E08081877F8C934CC0A5E5B0E0B7
:10036000E5E5F0E0808184608C93A5E5B0E0E5E50B
:10037000F0E08081877F8C933DC0A5E5B0E0E5E5A6
:10038000F0E080818B7F8C93A5E5B0E0E5E5F0E0BF
:10039000808188608C932EC0A5E5B0E0E5E5F0E0B3
:1003A000808184608C93A5E5B0E0E5E5F0E0808194
:1003B00088608C931FC08A81282F30E03C832B8378
:1003C0008B819C818230910531F02B813C812330DF
:1003D000310549F00FC0A4E5B0E0E4E5F0E080812C
:1003E0008F7B8C9307C0A5E5B0E0E5E5F0E0808168
:1003F00080648C932A960FB6F894DEBF0FBECDBFF3
:10040000CF91DF910895DF93CF9300D00F92CDB7B6
:10041000DEB789838981282F30E03B832A838A8154
:100420009B818130910589F02A813B812230310501
:10043000A1F08A819B810097B9F4ABE5B0E0EBE5D0
:10044000F0E0808180648C930FC0ABE5B0E0EBE519
:10045000F0E0808180688C9307C0ABE5B0E0EBE50D
:10046000F0E0808180628C930F900F900F90CF917D
:10047000DF910895DF93CF9300D00F92CDB7DEB711
:1004800089838981282F30E03B832A838A819B815D
:100490008130910589F02A813B8122303105A1F01C
:1004A0008A819B810097B9F4ABE5B0E0EBE5F0E021
:1004B00080818F7B8C930FC0ABE5B0E0EBE5F0E083
:1004C00080818F778C9307C0ABE5B0E0EBE5F0E07F
:1004D00080818F7D8C930F900F900F90CF91DF9143
:1004E0000895DF93CF93CDB7DEB7AFE5B0E0EFE58A
:1004F000F0E0808180688C93CF91DF910895DF9345
:10050000CF93CDB7DEB7AFE5B0E0EFE5F0E08081A7
:100510008F778C93CF91DF910895DF93CF9300D0A5
:1005200000D0CDB7DEB789836A838981843090F5A6
:100530008981282F30E03C832B838B819C81813003
:100540009105D1F02B813C81223031052CF48B8137
:100550009C81009761F01EC02B813C8122303105C7
:1005600081F08B819C818330910581F013C0EAE397
:10057000F0E08A8180830EC0E7E3F0E08A81808327
:1005800009C0E4E3F0E08A81808304C0E1E3F0E0A5
:100590008A8180830F900F900F900F90CF91DF9101
:1005A0000895DF93CF93CDB7DEB72D970FB6F894AC
:1005B000DEBF0FBECDBF89836A834B8389818430C0
:1005C00008F008C18A81883008F004C18B8182302C
:1005D00008F000C18981282F30E03D872C878C8569
:1005E0009D858130910509F44FC02C853D852230D1
:1005F00031052CF48C859D85009771F0EBC02C851E
:100600003D852230310509F477C08C859D85833086
:10061000910509F4A9C0DEC08B81282F30E03B870B
:100620002A878A859B850097D1F02A853B852130D2
:10063000310509F0CFC0AAE3B0E0EAE3F0E0808141
:10064000482F8A81282F30E081E090E0022E02C0FE
:10065000880F991F0A94E2F7842B8C93BBC0AAE3FE
:10066000B0E0EAE3F0E08081482F8A81282F30E073
:1006700081E090E0022E02C0880F991F0A94E2F7F1
:10068000809584238C93A6C08B81282F30E03987F6
:100690002887888599850097D1F02885398521306C
:1006A000310509F097C0A7E3B0E0E7E3F0E080810F
:1006B000482F8A81282F30E081E090E0022E02C08E
:1006C000880F991F0A94E2F7842B8C9383C0A7E3C9
:1006D000B0E0E7E3F0E08081482F8A81282F30E006
:1006E00081E090E0022E02C0880F991F0A94E2F781
:1006F000809584238C936EC08B81282F30E03F83BC
:100700002E838E819F810097D1F02E813F812130F1
:10071000310509F05FC0A4E3B0E0E4E3F0E08081DC
:10072000482F8A81282F30E081E090E0022E02C01D
:10073000880F991F0A94E2F7842B8C934BC0A4E393
:10074000B0E0E4E3F0E08081482F8A81282F30E098
:1007500081E090E0022E02C0880F991F0A94E2F710
:10076000809584238C9336C08B81282F30E03D8385
:100770002C838C819D810097C9F02C813D81213093
:10078000310541F5A1E3B0E0E1E3F0E08081482FDD
:100790008A81282F30E081E090E0022E02C0880F8D
:1007A000991F0A94E2F7842B8C9314C0A1E3B0E064
:1007B000E1E3F0E08081482F8A81282F30E081E05A
:1007C00090E0022E02C0880F991F0A94E2F78095EC
:1007D00084238C932D960FB6F894DEBF0FBECDBF49
:1007E000CF91DF910895DF93CF9300D000D0CDB7A4
:1007F000DEB789836A838981282F30E03C832B838D
:100800008B819C8181309105D1F02B813C812230FC
:1008100031052CF48B819C81009761F01EC02B81E7
:100820003C812230310581F08B819C8183309105A0
:1008300081F013C0EBE3F0E08A8180830EC0E8E32F
:10084000F0E08A81808309C0E5E3F0E08A8180835B
:1008500004C0E2E3F0E08A8180830F900F900F9054
:100860000F90CF91DF910895DF93CF93CDB7DEB78F
:100870002D970FB6F894DEBF0FBECDBF89836A8374
:100880004B838981282F30E03D872C878C859D857F
:100890008130910509F44FC02C853D85223031050A
:1008A0002CF48C859D85009771F0EBC02C853D85DF
:1008B0002230310509F477C08C859D858330910500
:1008C00009F4A9C0DEC08B81282F30E03B872A873E
:1008D0008A859B850097D1F02A853B85213031059B
:1008E00009F0CFC0ABE3B0E0EBE3F0E08081482F4C
:1008F0008A81282F30E081E090E0022E02C0880F2C
:10090000991F0A94E2F7842B8C93BBC0ABE3B0E051
:10091000EBE3F0E08081482F8A81282F30E081E0EE
:1009200090E0022E02C0880F991F0A94E2F780958A
:1009300084238C93A6C08B81282F30E039872887A9
:10094000888599850097D1F0288539852130310532
:1009500009F097C0A8E3B0E0E8E3F0E08081482F19
:100960008A81282F30E081E090E0022E02C0880FBB
:10097000991F0A94E2F7842B8C9383C0A8E3B0E01C
:10098000E8E3F0E08081482F8A81282F30E081E081
:1009900090E0022E02C0880F991F0A94E2F780951A
:1009A00084238C936EC08B81282F30E03F832E836D
:1009B0008E819F810097D1F02E813F8121303105BA
:1009C00009F05FC0A5E3B0E0E5E3F0E08081482FE7
:1009D0008A81282F30E081E090E0022E02C0880F4B
:1009E000991F0A94E2F7842B8C934BC0A5E3B0E0E7
:1009F000E5E3F0E08081482F8A81282F30E081E014
:100A000090E0022E02C0880F991F0A94E2F78095A9
:100A100084238C9336C08B81282F30E03D832C8338
:100A20008C819D810097C9F02C813D812130310559
:100A300041F5A2E3B0E0E2E3F0E08081482F8A8153
:100A4000282F30E081E090E0022E02C0880F991F2D
:100A50000A94E2F7842B8C9314C0A2E3B0E0E2E3A3
:100A6000F0E08081482F8A81282F30E081E090E0FB
:100A7000022E02C0880F991F0A94E2F78095842302
:100A80008C932D960FB6F894DEBF0FBECDBFCF91DD
:100A9000DF910895DF93CF93CDB7DEB72D970FB6D3
:100AA000F894DEBF0FBECDBF89836A834B838981F3
:100AB000282F30E03D872C878C859D8581309105DE
:100AC00009F44FC02C853D85223031052CF48C85EE
:100AD0009D85009771F0EBC02C853D852230310556
:100AE00009F477C08C859D858330910509F4A9C0F0
:100AF000DEC08B81282F30E03B872A878A859B8543
:100B00000097D1F02A853B852130310509F0CFC00F
:100B1000A9E3B0E0E9E3F0E08081482F8A81282F43
:100B200030E081E090E0022E02C0880F991F0A9405
:100B3000E2F7842B8C93BBC0A9E3B0E0E9E3F0E0DB
:100B40008081482F8A81282F30E081E090E0022EBA
:100B500002C0880F991F0A94E2F7809584238C9332
:100B6000A6C08B81282F30E0398728878885998512
:100B70000097D1F0288539852130310509F097C0DB
:100B8000A6E3B0E0E6E3F0E08081482F8A81282FD9
:100B900030E081E090E0022E02C0880F991F0A9495
:100BA000E2F7842B8C9383C0A6E3B0E0E6E3F0E0A9
:100BB0008081482F8A81282F30E081E090E0022E4A
:100BC00002C0880F991F0A94E2F7809584238C93C2
:100BD0006EC08B81282F30E03F832E838E819F81D2
:100BE0000097D1F02E813F812130310509F05FC09F
:100BF000A3E3B0E0E3E3F0E08081482F8A81282F6F
:100C000030E081E090E0022E02C0880F991F0A9424
:100C1000E2F7842B8C934BC0A3E3B0E0E3E3F0E076
:100C20008081482F8A81282F30E081E090E0022ED9
:100C300002C0880F991F0A94E2F7809584238C9351
:100C400036C08B81282F30E03D832C838C819D81A1
:100C50000097C9F02C813D812130310541F5A0E399
:100C6000B0E0E0E3F0E08081482F8A81282F30E077
:100C700081E090E0022E02C0880F991F0A94E2F7EB
:100C8000842B8C9314C0A0E3B0E0E0E3F0E080811B
:100C9000482F8A81282F30E081E090E0022E02C0A8
:100CA000880F991F0A94E2F7809584238C932D96E0
:100CB0000FB6F894DEBF0FBECDBFCF91DF91089580
:100CC000DF93CF9300D000D00F92CDB7DEB78A83E9
:100CD0006B838A81282F30E03D832C834C815D819A
:100CE0004130510541F18C819D818230910534F470
:100CF0002C813D812115310561F052C04C815D810F
:100D00004230510551F18C819D8183309105B9F1BB
:100D100047C0E9E3F0E08081282F30E08B81882F05
:100D200090E0A90102C0559547958A95E2F7CA015E
:100D30008170898335C0E6E3F0E08081282F30E0C0
:100D40008B81882F90E0A90102C0559547958A951F
:100D5000E2F7CA018170898323C0E3E3F0E0808178
:100D6000282F30E08B81882F90E0A90102C0559593
:100D700047958A95E2F7CA018170898311C0E0E343
:100D8000F0E08081282F30E08B81882F90E0A9014E
:100D900002C0559547958A95E2F7CA01817089830B
:100DA00089810F900F900F900F900F90CF91DF914E
:100DB0000895DF93CF93CDB7DEB780916400813083
:100DC00041F482E060E041E00E944A051092640034
:100DD00008C082E060E040E00E944A0581E0809324
:100DE0006400CF91DF910895DF93CF93CDB7DEB745
:100DF00082E060E041E00E94D1020E9471020E9404
:100E00003E0029ED36E060ED77E080E090E0A9015A
:0E0E10000E944F000E948900FFCFF894FFCF90
:00000001FF
