:100000000C942A000C9447000C9447000C94470071
:100010000C9447000C9447000C9447000C94470044
:100020000C9447000C9447000C9447000C94470034
:100030000C9447000C9447000C9447000C94470024
:100040000C9447000C9447000C9447000C94470014
:100050000C94470011241FBECFE5D8E0DEBFCDBF12
:1000600011E0A0E6B0E0EEEBF2E402C005900D92E4
:10007000A03DB107D9F711E0A0EDB1E001C01D929C
:10008000A93DB107E1F70E9469140C945D210C941D
:100090000000EF92FF920F931F937B018C0120E0F1
:1000A00030E040E05FE40E94490388238CF0C801FF
:1000B000B70120E030E040E05FE40E94C1010E940F
:1000C000A9039B01AC01205030404040504806C07D
:1000D000C801B7010E94A9039B01AC01B901CA0183
:1000E0001F910F91FF90EF900895A0E0B0E0EBE733
:1000F000F0E00C942621DC012B01FA019C91923056
:1001000008F439C1EB018881823008F433C194309E
:1001100069F4843009F02FC111969C91119789815F
:10012000981709F428C1A8EAB1E025C1843009F480
:1001300021C18230A9F4923009F01DC19A01AD01AC
:1001400088E0EA010990AE01E90109929E0181501F
:10015000C1F7E201898111969C918923818308C1AD
:10016000923009F407C112962D903C901397EB0141
:100170008A819B811496AD90BD90CD90DC901797AD
:10018000EC80FD800E811F819101281B390BB90184
:1001900037FF04C066277727621B730B6032710537
:1001A0000CF061C0121613066CF537014801062EDB
:1001B00004C096948794779467940A94D2F721E0C8
:1001C00030E040E050E004C0220F331F441F551FB1
:1001D0006A95D2F721503040404050402E213F21B7
:1001E00040235123211531054105510521F021E01E
:1001F00030E040E050E079018A01E628F72808293C
:1002000019293CC0232BD1F1260E371E350146019A
:10021000062E04C096948794779467940A94D2F734
:1002200021E030E040E050E004C0220F331F441FC3
:10023000551F6A95D2F721503040404050402A2146
:100240003B214C215D21211531054105510521F04E
:1002500021E030E040E050E059016A01A628B728CB
:10026000C828D9280BC0821593052CF01C01AA249C
:10027000BB24650103C0EE24FF24870111969C91E5
:10028000D20111968C91981709F445C0992339F041
:10029000A80197012A193B094C095D0906C0A6016E
:1002A00095012E193F09400B510B57FD08C01182D3
:1002B0003382228224833583468357831DC081E0A5
:1002C00081833382228288279927DC01821B930B4A
:1002D000A40BB50B84839583A683B7830DC0220F2F
:1002E000331F441F551F24833583468357838281E0
:1002F000938101979383828324813581468157813D
:10030000DA01C9010197A109B1098F5F9F4FAF4F72
:10031000BF4328F30BC0918333822282EA0CFB1C7B
:100320000C1D1D1DE482F5820683178383E0808304
:10033000248135814681578157FF1AC0C901AA27F8
:1003400097FDA095BA2F81709070A070B0705695EF
:10035000479537952795822B932BA42BB52B848318
:100360009583A683B7838281938101969383828349
:10037000DF0101C0D201CD01CDB7DEB7E2E10C94BF
:100380004221A0E2B0E0E7ECF1E00C943221698375
:100390007A838B839C832D833E834F835887E9E048
:1003A000EE2EF12CEC0EFD1ECE010196B7010E943F
:1003B000D2048E010F5E1F4FCE010596B8010E9438
:1003C000D2048A8991E089278A8BC701B801AE01DE
:1003D000475E5F4F0E9475000E94FD03A096E6E015
:1003E0000C944E21A0E2B0E0E8EFF1E00C94322151
:1003F00069837A838B839C832D833E834F835887C5
:10040000F9E0EF2EF12CEC0EFD1ECE010196B701A6
:100410000E94D2048E010F5E1F4FCE010596B801D7
:100420000E94D204C701B801AE01475E5F4F0E942F
:1004300075000E94FD03A096E6E00C944E21A0E218
:10044000B0E0E5E2F2E00C94262169837A838B83A5
:100450009C832D833E834F835887CE010196BE0136
:10046000675F7F4F0E94D204CE010596BE016F5E8A
:100470007F4F0E94D2049985923088F0898982301A
:10048000C8F0943019F4823051F404C0843029F457
:10049000923081F488EA91E0C6C0923049F420E0BD
:1004A0009A858A89981321E02A87CE010996BBC0D4
:1004B000823049F420E09A858A89981321E02A8BBA
:1004C000CE014196B0C02D843E844F8458886D88FB
:1004D0007E888F88988CEE24FF248701AA24BB2471
:1004E000650140E050E060E070E0E0E0F0E0C10174
:1004F00081709070892BE9F0E60CF71C081D191D1E
:100500009A01AB012A0D3B1D4C1D5D1D80E090E062
:10051000A0E0B0E0E614F7040805190520F481E036
:1005200090E0A0E0B0E0BA01A901480F591F6A1F8E
:100530007B1FAA0CBB1CCC1CDD1C97FE08C081E0F5
:1005400090E0A0E0B0E0A82AB92ACA2ADB2A3196B6
:10055000E032F10549F0660C771C881C991C569412
:10056000479437942794C3CFFA85EA892B893C892D
:100570008B859C85280F391F2E5F3F4F17C0CA01FE
:1005800081709070892B61F016950795F794E79428
:1005900080E090E0A0E0B0E8E82AF92A0A2B1B2BC3
:1005A00076956795579547952F5F3F4F77FDE7CF36
:1005B0000CC0440F551F661F771F17FD4160EE0CDE
:1005C000FF1C001F111F21503040403090E05907A0
:1005D00090E0690790E4790760F32B8F3C8FDB0193
:1005E000CA018F779070A070B07080349105A1051A
:1005F000B10561F447FD0AC0E114F10401051105DC
:1006000029F0405C5F4F6F4F7F4F40781A8EFE1786
:1006100011F081E08A8F4D8F5E8F6F8F78A383E01A
:10062000898FCE0149960E94FD03A096E2E10C94C9
:100630004221A8E1B0E0EFE1F3E00C9432216983BC
:100640007A838B839C832D833E834F83588789E0F5
:10065000E82EF12CEC0EFD1ECE010196B7010E9492
:10066000D2048E010F5E1F4FCE010596B8010E9485
:10067000D2048985823040F08989823028F0C70110
:10068000B8010E944A0501C08FEF6896E6E00C941D
:100690004E21A8E1B0E0EFE4F3E00C94322169834D
:1006A0007A838B839C832D833E834F83588789E095
:1006B000E82EF12CEC0EFD1ECE010196B7010E9432
:1006C000D2048E010F5E1F4FCE010596B8010E9425
:1006D000D2048985823040F08989823028F0C701B0
:1006E000B8010E944A0501C08FEF6896E6E00C94BD
:1006F0004E21A8E1B0E0EFE7F3E00C9432216983EA
:100700007A838B839C832D833E834F83588789E034
:10071000E82EF12CEC0EFD1ECE010196B7010E94D1
:10072000D2048E010F5E1F4FCE010596B8010E94C4
:10073000D2048985823040F08989823028F0C7014F
:10074000B8010E944A0501C081E06896E6E00C9479
:100750004E21ACE0B0E0EFEAF3E00C94362169837F
:100760007A838B839C83CE010196BE016B5F7F4FA2
:100770000E94D2048D81823061F1823050F1843048
:1007800021F48E81882351F12EC02F81388537FDC9
:1007900020C06E812F3131051CF06623F9F023C093
:1007A0008EE190E0821B930B29853A854B855C8511
:1007B00004C056954795379527958A95D2F76623B5
:1007C000B1F050954095309521953F4F4F4F5F4F79
:1007D0000EC020E030E040E050E009C02FEF3FEFD6
:1007E0004FEF5FE704C020E030E040E050E8B9019F
:1007F000CA012C96E2E00C945221DF92EF92FF9214
:100800000F931F93FC01E480F58006811781D1804E
:100810008081823048F480E090E0A0E1B0E0E82AF6
:10082000F92A0A2B1B2BA5C0843009F49FC0823003
:1008300021F4EE24FF24870105C0E114F104010531
:10084000110519F4E0E0F0E096C0628173819FEF3A
:10085000623879070CF05BC022E83FEF261B370BAC
:100860002A3131052CF020E030E040E050E02AC091
:10087000B801A701022E04C0769567955795479554
:100880000A94D2F781E090E0A0E0B0E004C0880FC5
:10089000991FAA1FBB1F2A95D2F70197A109B10979
:1008A0008E219F21A023B1230097A105B10521F03E
:1008B00081E090E0A0E0B0E09A01AB01282B392B59
:1008C0004A2B5B2BDA01C9018F779070A070B07052
:1008D00080349105A105B10539F427FF09C0205CDA
:1008E0003F4F4F4F5F4F04C0215C3F4F4F4F5F4F13
:1008F000E0E0F0E02030A0E03A07A0E04A07A0E402
:100900005A0710F0E1E0F0E079018A0127C0603871
:10091000710564F5FB01E158FF4FD801C7018F77DE
:100920009070A070B07080349105A105B10539F4C4
:10093000E7FE0DC080E490E0A0E0B0E004C08FE3EB
:1009400090E0A0E0B0E0E80EF91E0A1F1B1F17FFA1
:1009500005C016950795F794E794319687E01695AC
:100960000795F794E7948A95D1F705C0EE24FF2404
:100970008701EFEFF0E06E2F679566276795902F60
:100980009F77D794DD24D7948E2F8695492F462BB9
:10099000582F5D29B701CA011F910F91FF90EF9069
:1009A000DF900895FC01DB01408151812281622F9B
:1009B0006F7770E0221F2227221F9381892F880FD3
:1009C000822B282F30E0991F9927991F11969C930D
:1009D000119721153105A9F54115510561057105DD
:1009E00011F482E037C082E89FEF13969C938E93B8
:1009F00012979A01AB0167E0220F331F441F551F66
:100A00006A95D1F783E08C930DC0220F331F441FEA
:100A1000551F12968D919C911397019713969C9355
:100A20008E931297203080E0380780E0480780E4FA
:100A3000580758F314962D933D934D935C93179755
:100A400008952F3F310579F4411551056105710570
:100A500019F484E08C93089564FF03C081E08C93C3
:100A600012C01C9210C02F57304013963C932E9307
:100A7000129783E08C9387E0440F551F661F771F02
:100A80008A95D1F7706414964D935D936D937C9322
:100A9000179708951F93DC01FB019C91923008F495
:100AA00047C08081823008F443C0943051F41196DD
:100AB0001C91843099F58181682F70E0611B710968
:100AC0003FC0843021F0923031F48230B9F181811D
:100AD000882389F12DC011961C9111978230F1F075
:100AE00081811817D9F412962D913C911397828128
:100AF00093818217930794F028173907BCF0149656
:100B00008D919D910D90BC91A02D248135814681C0
:100B10005781281739074A075B0718F4112341F05A
:100B20000AC082179307A407B50740F4112319F0F0
:100B300061E070E005C06FEF7FEF02C060E070E041
:100B4000CB011F910895DF93CF93CDB7DEB7A1E31B
:100B5000B0E0E1E3F0E0808180628C93AFE4B0E04C
:100B6000EFE4F0E080818E7F8C93AFE4B0E0EFE4BF
:100B7000F0E0808182608C93AEE4B0E0EEE4F0E0DF
:100B8000808188608C93AEE4B0E0EEE4F0E0808198
:100B900080618C93E6E4F0E08FE19EE491838083B2
:100BA000AEE4B0E0EEE4F0E08081887F82608C9378
:100BB000AFE4B0E0EFE4F0E0808180688C93AFE4D4
:100BC000B0E0EFE4F0E0808180628C93ECE4F0E050
:100BD00011821082CF91DF910895DF93CF9300D0DF
:100BE000CDB7DEB79A838983EAE4F0E089819A8100
:100BF000918380830F900F90CF91DF910895DF93C1
:100C0000CF93CDB7DEB781E064E041E00E94C90632
:100C100081E065E041E00E94C90681E066E041E0D4
:100C20000E94C90681E067E041E00E94C906ADE28A
:100C3000B0E0EDE2F0E080818F778C93ADE2B0E040
:100C4000EDE2F0E080818F7D8C93ADE2B0E0EDE2EB
:100C5000F0E0808180618C93ADE2B0E0EDE2F0E005
:100C60008081877F8C93ADE2B0E0EDE2F0E080819F
:100C70008B7F8C93ADE2B0E0EDE2F0E080818160AB
:100C80008C93ADE2B0E0EDE2F0E080818D7F8C935B
:100C9000AEE2B0E0EEE2F0E080818E7F8C93ADE2D8
:100CA000B0E0EDE2F0E0808180648C9381E064E06C
:100CB00041E00E94EB07CF91DF910895DF93CF933E
:100CC000CDB7DEB781E064E040E00E94C90681E074
:100CD00065E040E00E94C90681E066E041E00E94D4
:100CE000C90681E067E040E00E94C906ADE2B0E0DD
:100CF000EDE2F0E080818F778C93ADE2B0E0EDE241
:100D0000F0E080818F7D8C93ADE2B0E0EDE2F0E029
:100D100080818F7E8C93ADE2B0E0EDE2F0E08081E7
:100D2000877F8C93ADE2B0E0EDE2F0E080818B7FD5
:100D30008C93ADE2B0E0EDE2F0E0808180648C93D2
:100D4000CF91DF910895DF93CF9300D0CDB7DEB779
:100D5000898381E064E040E00E94EB07EFE2F0E08D
:100D600089818083EEE2F0E080810F900F90CF9137
:100D7000DF910895DF93CF930F92CDB7DEB7EEE208
:100D8000F0E08081EFE2F0E080810F90CF91DF9181
:100D90000895DF93CF93CDB7DEB72D970FB6F894B4
:100DA000DEBF0FBECDBF89836A834B8389818430C8
:100DB00008F008C18A81883008F004C18B81823034
:100DC00008F000C18981282F30E03D872C878C8571
:100DD0009D858130910509F44FC02C853D852230D9
:100DE00031052CF48C859D85009771F0EBC02C8526
:100DF0003D852230310509F477C08C859D8583308F
:100E0000910509F4A9C0DEC08B81282F30E03B8713
:100E10002A878A859B850097D1F02A853B852130DA
:100E2000310509F0CFC0AAE3B0E0EAE3F0E0808149
:100E3000482F8A81282F30E081E090E0022E02C006
:100E4000880F991F0A94E2F7842B8C93BBC0AAE306
:100E5000B0E0EAE3F0E08081482F8A81282F30E07B
:100E600081E090E0022E02C0880F991F0A94E2F7F9
:100E7000809584238C93A6C08B81282F30E03987FE
:100E80002887888599850097D1F028853985213074
:100E9000310509F097C0A7E3B0E0E7E3F0E0808117
:100EA000482F8A81282F30E081E090E0022E02C096
:100EB000880F991F0A94E2F7842B8C9383C0A7E3D1
:100EC000B0E0E7E3F0E08081482F8A81282F30E00E
:100ED00081E090E0022E02C0880F991F0A94E2F789
:100EE000809584238C936EC08B81282F30E03F83C4
:100EF0002E838E819F810097D1F02E813F812130FA
:100F0000310509F05FC0A4E3B0E0E4E3F0E08081E4
:100F1000482F8A81282F30E081E090E0022E02C025
:100F2000880F991F0A94E2F7842B8C934BC0A4E39B
:100F3000B0E0E4E3F0E08081482F8A81282F30E0A0
:100F400081E090E0022E02C0880F991F0A94E2F718
:100F5000809584238C9336C08B81282F30E03D838D
:100F60002C838C819D810097C9F02C813D8121309B
:100F7000310541F5A1E3B0E0E1E3F0E08081482FE5
:100F80008A81282F30E081E090E0022E02C0880F95
:100F9000991F0A94E2F7842B8C9314C0A1E3B0E06C
:100FA000E1E3F0E08081482F8A81282F30E081E062
:100FB00090E0022E02C0880F991F0A94E2F78095F4
:100FC00084238C932D960FB6F894DEBF0FBECDBF51
:100FD000CF91DF910895DF93CF93CDB7DEB72D97F3
:100FE0000FB6F894DEBF0FBECDBF89836A834B83F3
:100FF0008981843008F008C18A81883008F004C1F2
:101000008B81823008F000C18981282F30E03D8734
:101010002C878C859D858130910509F44FC02C85E6
:101020003D85223031052CF48C859D85009771F02B
:10103000EBC02C853D852230310509F477C08C85C5
:101040009D858330910509F4A9C0DEC08B81282FCE
:1010500030E03B872A878A859B850097D1F02A85D7
:101060003B852130310509F0CFC0ABE3B0E0EBE3C5
:10107000F0E08081482F8A81282F30E081E090E0E5
:10108000022E02C0880F991F0A94E2F7842B8C93DA
:10109000BBC0ABE3B0E0EBE3F0E08081482F8A8196
:1010A000282F30E081E090E0022E02C0880F991FC7
:1010B0000A94E2F7809584238C93A6C08B81282F15
:1010C00030E039872887888599850097D1F0288571
:1010D00039852130310509F097C0A8E3B0E0E8E395
:1010E000F0E08081482F8A81282F30E081E090E075
:1010F000022E02C0880F991F0A94E2F7842B8C936A
:1011000083C0A8E3B0E0E8E3F0E08081482F8A8163
:10111000282F30E081E090E0022E02C0880F991F56
:101120000A94E2F7809584238C936EC08B81282FDC
:1011300030E03F832E838E819F810097D1F02E81F6
:101140003F812130310509F05FC0A5E3B0E0E5E360
:10115000F0E08081482F8A81282F30E081E090E004
:10116000022E02C0880F991F0A94E2F7842B8C93F9
:101170004BC0A5E3B0E0E5E3F0E08081482F8A8131
:10118000282F30E081E090E0022E02C0880F991FE6
:101190000A94E2F7809584238C9336C08B81282FA4
:1011A00030E03D832C838C819D810097C9F02C8198
:1011B0003D812130310541F5A2E3B0E0E2E3F0E00A
:1011C0008081482F8A81282F30E081E090E0022E34
:1011D00002C0880F991F0A94E2F7842B8C9314C0E5
:1011E000A2E3B0E0E2E3F0E08081482F8A81282F7B
:1011F00030E081E090E0022E02C0880F991F0A942F
:10120000E2F7809584238C932D960FB6F894DEBF79
:101210000FBECDBFCF91DF910895DF93CF9300D064
:1012200000D00F92CDB7DEB78A836B8383E08983CA
:101230008A81843008F06BC08B81883008F067C0E9
:101240008A81282F30E03D832C834C815D814130A1
:10125000510541F18C819D818230910534F42C81BE
:101260003D812115310561F052C04C815D814230D4
:10127000510551F18C819D8183309105B9F147C0B1
:10128000E9E3F0E08081282F30E08B81882F90E027
:10129000A90102C0559547958A95E2F7CA01817068
:1012A000898335C0E6E3F0E08081282F30E08B8130
:1012B000882F90E0A90102C0559547958A95E2F7DD
:1012C000CA018170898323C0E3E3F0E08081282F85
:1012D00030E08B81882F90E0A90102C05595479599
:1012E0008A95E2F7CA018170898311C0E0E3F0E0DA
:1012F0008081282F30E08B81882F90E0A90102C0E7
:10130000559547958A95E2F7CA018170898389814D
:101310000F900F900F900F900F90CF91DF91089545
:10132000DF93CF9300D000D0CDB7DEB789836A8337
:101330008981843008F072C08A81883008F06EC0DC
:101340008981282F30E03C832B838B819C818130E5
:10135000910549F12B813C81223031052CF48B81A0
:101360009C81009761F05AC02B813C81223031056D
:1013700071F18B819C8183309105E9F14FC0ABE322
:10138000B0E0EBE3F0E08081482F8A81282F30E045
:1013900081E090E0022E02C0880F991F0A94E2F7C4
:1013A00084278C933BC0ABE3B0E0EBE3F0E08081BB
:1013B000482F8A81282F30E081E090E0022E02C081
:1013C000880F991F0A94E2F784278C9327C0ABE318
:1013D000B0E0EBE3F0E08081482F8A81282F30E0F5
:1013E00081E090E0022E02C0880F991F0A94E2F774
:1013F00084278C9313C0ABE3B0E0EBE3F0E0808193
:10140000482F8A81282F30E081E090E0022E02C030
:10141000880F991F0A94E2F784278C930F900F90FE
:101420000F900F90CF91DF910895DF93CF9300D06D
:1014300000D0CDB7DEB789836A838981843090F587
:101440008981282F30E03C832B838B819C818130E4
:101450009105D1F02B813C81223031052CF48B8118
:101460009C81009761F01EC02B813C8122303105A8
:1014700081F08B819C818330910581F013C0EAE378
:10148000F0E08A8180830EC0E7E3F0E08A81808308
:1014900009C0E4E3F0E08A81808304C0E1E3F0E086
:1014A0008A8180830F900F900F900F90CF91DF91E2
:1014B0000895DF93CF9300D000D0CDB7DEB78983F6
:1014C0006A838981843090F58981282F30E03C83BC
:1014D0002B838B819C8181309105D1F02B813C81C4
:1014E000223031052CF48B819C81009761F01EC065
:1014F0002B813C812230310581F08B819C818330AE
:10150000910581F013C0EBE3F0E08A8180830EC087
:10151000E8E3F0E08A81808309C0E5E3F0E08A81B6
:10152000808304C0E2E3F0E08A8180830F900F9013
:101530000F900F90CF91DF910895DF93CF9300D05C
:1015400000D0CDB7DEB78A8319828A81843090F5C6
:101550008A81282F30E03C832B838B819C818130D2
:101560009105D1F02B813C81223031052CF48B8107
:101570009C81009761F01EC02B813C812230310597
:1015800081F08B819C818330910581F013C0E9E368
:10159000F0E0808189830EC0E6E3F0E080818983FA
:1015A00009C0E3E3F0E08081898304C0E0E3F0E078
:1015B0008081898389810F900F900F900F90CF9138
:1015C000DF910895DF93CF9300D00F92CDB7DEB7B0
:1015D00089838981843008F094C08981282F30E084
:1015E0003B832A838A819B8181309105A1F12A81E5
:1015F0003B81223031052CF48A819B81009771F068
:1016000080C02A813B812230310509F441C08A81A2
:101610009B818330910509F458C073C0EBE3F0E07F
:10162000808160E041E00E94C906EBE3F0E0808148
:1016300061E041E00E94C906EBE3F0E0808162E0F6
:1016400041E00E94C906EBE3F0E0808163E041E005
:101650000E94C90656C0E8E3F0E0808160E041E006
:101660000E94C906E8E3F0E0808161E041E00E9469
:10167000C906E8E3F0E0808162E041E00E94C9062B
:10168000E8E3F0E0808163E041E00E94C90639C0F0
:10169000E5E3F0E0808160E041E00E94C906E5E317
:1016A000F0E0808161E041E00E94C906E5E3F0E0FE
:1016B000808162E041E00E94C906E5E3F0E08081BC
:1016C00063E041E00E94C9061CC0E2E3F0E08081D3
:1016D00060E041E00E94C906E2E3F0E0808161E061
:1016E00041E00E94C906E2E3F0E0808162E041E06F
:1016F0000E94C906E2E3F0E0808163E041E00E94DD
:10170000C9060F900F900F90CF91DF910895DF934E
:10171000CF9300D00F92CDB7DEB789838981843013
:1017200008F094C08981282F30E03B832A838A8186
:101730009B8181309105A1F12A813B8122303105C5
:101740002CF48A819B81009771F080C02A813B81B3
:101750002230310509F441C08A819B818330910593
:1017600009F458C073C0EBE3F0E0808164E041E02D
:101770000E94C906EBE3F0E0808165E041E00E9451
:10178000C906EBE3F0E0808166E041E00E94C90613
:10179000EBE3F0E0808167E041E00E94C90656C0BB
:1017A000E8E3F0E0808164E041E00E94C906E8E3FC
:1017B000F0E0808165E041E00E94C906E8E3F0E0E6
:1017C000808166E041E00E94C906E8E3F0E08081A4
:1017D00067E041E00E94C90639C0E5E3F0E080819E
:1017E00064E041E00E94C906E5E3F0E0808165E045
:1017F00041E00E94C906E5E3F0E0808166E041E057
:101800000E94C906E5E3F0E0808167E041E00E94C4
:10181000C9061CC0E2E3F0E0808164E041E00E9480
:10182000C906E2E3F0E0808165E041E00E94C9067C
:10183000E2E3F0E0808166E041E00E94C906E2E375
:10184000F0E0808167E041E00E94C9060F900F90B0
:101850000F90CF91DF910895DF93CF9300D000D008
:10186000CDB7DEB789836A838A818F708A83898145
:10187000843008F05EC08981282F30E03C832B83C0
:101880008B819C818130910529F12B813C81223013
:1018900031052CF48B819C81009761F04AC02B812B
:1018A0003C812230310531F18B819C81833091055F
:1018B00089F13FC0ABE3B0E0EBE3F0E08081807FF3
:1018C0008C93ABE3B0E0EBE3F0E090818A81892B6D
:1018D0008C932FC0A8E3B0E0E8E3F0E08081807F44
:1018E0008C93A8E3B0E0E8E3F0E090818A81892B53
:1018F0008C931FC0A5E3B0E0E5E3F0E08081807F3A
:101900008C93A5E3B0E0E5E3F0E090818A81892B38
:101910008C930FC0A2E3B0E0E2E3F0E08081807F2F
:101920008C93A2E3B0E0E2E3F0E090818A81892B1E
:101930008C930F900F900F900F90CF91DF9108959F
:10194000DF93CF9300D000D0CDB7DEB789836A8311
:101950008A818295807F8A838A81807F8A83898138
:10196000843008F05EC08981282F30E03C832B83CF
:101970008B819C818130910529F12B813C81223022
:1019800031052CF48B819C81009761F04AC02B813A
:101990003C812230310531F18B819C81833091056E
:1019A00089F13FC0ABE3B0E0EBE3F0E080818F7002
:1019B0008C93ABE3B0E0EBE3F0E090818A81892B7C
:1019C0008C932FC0A8E3B0E0E8E3F0E080818F7053
:1019D0008C93A8E3B0E0E8E3F0E090818A81892B62
:1019E0008C931FC0A5E3B0E0E5E3F0E080818F7049
:1019F0008C93A5E3B0E0E5E3F0E090818A81892B48
:101A00008C930FC0A2E3B0E0E2E3F0E080818F703E
:101A10008C93A2E3B0E0E2E3F0E090818A81892B2D
:101A20008C930F900F900F900F90CF91DF910895AE
:101A3000DF93CF930F92CDB7DEB7898389816FEFA4
:101A40000E94150A0F90CF91DF910895DF93CF93F5
:101A500000D0CDB7DEB789836A838A81882F90E072
:101A6000FC01E055FE4F90818981692F0E94590A3F
:101A70000F900F90CF91DF910895DF93CF930F9246
:101A8000CDB7DEB78983898160E00E94590A0F9043
:101A9000CF91DF910895DF93CF93CDB7DEB76197F4
:101AA0000FB6F894DEBF0FBECDBF888B698B8989D6
:101AB0008F8779C088896F850E94260D80E090E02D
:101AC000AAE7B4E48B879C87AD87BE876B857C854E
:101AD0008D859E8520E030E04AEF54E40E941F028D
:101AE000DC01CB018F839887A987BA876F817885BE
:101AF00089859A8520E030E040E85FE30E94790321
:101B000088232CF481E090E09E838D833FC06F8119
:101B1000788589859A8520E03FEF4FE757E40E945A
:101B2000190318164CF56B857C858D859E8520E004
:101B300030E040E251E40E941F02DC01CB01BC0115
:101B4000CD010E944900DC01CB019E838D830FC033
:101B500088EC90E09C838B838B819C810197F1F7CB
:101B60009C838B838D819E8101979E838D838D8144
:101B70009E81009769F714C06F81788589859A8561
:101B80000E944900DC01CB019E838D838D819E8163
:101B90009A83898389819A810197F1F79A8389834E
:101BA0008F858F5F8F878F858A3008F483CF61960A
:101BB0000FB6F894DEBF0FBECDBFCF91DF91089571
:101BC000DF93CF93CDB7DEB761970FB6F894DEBF42
:101BD0000FBECDBF888B698B89898F8788896F8578
:101BE0000E94260D80E090E0AAE7B4E48B879C87F2
:101BF000AD87BE876B857C858D859E8520E030E036
:101C00004AEF54E40E941F02DC01CB018F839887C6
:101C1000A987BA876F81788589859A8520E030E029
:101C200040E85FE30E94790388232CF481E090E090
:101C30009E838D833FC06F81788589859A8520E05A
:101C40003FEF4FE757E40E94190318164CF56B85D8
:101C50007C858D859E8520E030E040E251E40E9445
:101C60001F02DC01CB01BC01CD010E944900DC0157
:101C7000CB019E838D830FC088EC90E09C838B8387
:101C80008B819C810197F1F79C838B838D819E8151
:101C900001979E838D838D819E81009769F714C083
:101CA0006F81788589859A850E944900DC01CB0186
:101CB0009E838D838D819E819A83898389819A8178
:101CC0000197F1F79A8389838F8581508F8786CF1B
:101CD000DF93CF93CDB7DEB76C970FB6F894DEBF26
:101CE0000FBECDBF80E066E041E00E94EB0780E0E0
:101CF00090E0A0E0B0E4898F9A8FAB8FBC8F698DA4
:101D00007A8D8B8D9C8D20E030E04AEF54E40E9468
:101D10001F02DC01CB018D8B9E8BAF8BB88F6D8941
:101D20007E898F89988D20E030E040E85FE30E9453
:101D3000790388232CF481E090E09C8B8B8B3FC04F
:101D40006D897E898F89988D20E03FEF4FE757E4BA
:101D50000E94190318164CF5698D7A8D8B8D9C8D18
:101D600020E030E040E251E40E941F02DC01CB01A0
:101D7000BC01CD010E944900DC01CB019C8B8B8B07
:101D80000FC088EC90E09A8B898B89899A8901979A
:101D9000F1F79A8B898B8B899C8901979C8B8B8B14
:101DA0008B899C89009769F714C06D897E898F891A
:101DB000988D0E944900DC01CB019C8B8B8B8B8919
:101DC0009C89988B8F878F8598890197F1F7988BDD
:101DD0008F8780E066E040E00E94EB0780E090E0C3
:101DE000A0E0B0E48B879C87AD87BE876B857C8540
:101DF0008D859E8520E030E04AEF54E40E941F026A
:101E0000DC01CB018F839887A987BA876F8178859A
:101E100089859A8520E030E040E85FE30E947903FD
:101E200088232CF481E090E09E838D833FC06F81F6
:101E3000788589859A8520E03FEF4FE757E40E9437
:101E4000190318164CF56B857C858D859E8520E0E1
:101E500030E040E251E40E941F02DC01CB01BC01F2
:101E6000CD010E944900DC01CB019E838D830FC010
:101E700088EC90E09C838B838B819C810197F1F7A8
:101E80009C838B838D819E8101979E838D838D8121
:101E90009E81009769F714C06F81788589859A853E
:101EA0000E944900DC01CB019E838D838D819E8140
:101EB0009A83898389819A810197F1F79A8389832B
:101EC0006C960FB6F894DEBF0FBECDBFCF91DF91F9
:101ED0000895DF93CF93CDB7DEB7E8970FB6F894A8
:101EE000DEBF0FBECDBF80E090E0A8E4B2E48DABD2
:101EF0009EABAFABB8AF6DA97EA98FA998AD20E01E
:101F000030E04AEF54E40E941F02DC01CB0189ABB0
:101F10009AABABABBCAB69A97AA98BA99CA920E011
:101F200030E040E85FE30E94790388232CF481E0ED
:101F300090E098AB8FA73FC069A97AA98BA99CA90B
:101F400020E03FEF4FE757E40E94190318164CF5C5
:101F50006DA97EA98FA998AD20E030E040E251E460
:101F60000E941F02DC01CB01BC01CD010E9449008F
:101F7000DC01CB0198AB8FA70FC088EC90E09EA747
:101F80008DA78DA59EA50197F1F79EA78DA78FA57B
:101F900098A9019798AB8FA78FA598A9009769F783
:101FA00014C069A97AA98BA99CA90E944900DC01E7
:101FB000CB0198AB8FA78FA598A99CA78BA78BA5C2
:101FC0009CA50197F1F79CA78BA780E064E041E016
:101FD0000E94C90680E065E041E00E94C90680E0F9
:101FE00066E041E00E94C90680E00E94E20A0E9489
:101FF000401288E20E94871180E090E0A0E8BFE3F1
:102000008FA398A7A9A7BAA76FA178A589A59AA514
:1020100020E030E04AEF54E40E941F02DC01CB01D3
:102020008BA39CA3ADA3BEA36BA17CA18DA19EA1FC
:1020300020E030E040E85FE30E94790388232CF43D
:1020400081E090E09AA389A33FC06BA17CA18DA100
:102050009EA120E03FEF4FE757E40E9419031816B6
:102060004CF56FA178A589A59AA520E030E040E263
:1020700051E40E941F02DC01CB01BC01CD010E9492
:102080004900DC01CB019AA389A30FC088EC90E042
:1020900098A38F8F8F8D98A10197F1F798A38F8FB9
:1020A00089A19AA101979AA389A389A19AA10097CE
:1020B00069F714C06BA17CA18DA19EA10E9449006B
:1020C000DC01CB019AA389A389A19AA19E8F8D8F50
:1020D0008D8D9E8D0197F1F79E8F8D8F8FE00E94E1
:1020E000871180E090E0A0E8BFE3898F9A8FAB8FE3
:1020F000BC8F698D7A8D8B8D9C8D20E030E04AEF0E
:1021000054E40E941F02DC01CB018D8B9E8BAF8BB0
:10211000B88F6D897E898F89988D20E030E040E806
:102120005FE30E94790388232CF481E090E09C8B8C
:102130008B8B3FC06D897E898F89988D20E03FEF22
:102140004FE757E40E94190318164CF5698D7A8DF4
:102150008B8D9C8D20E030E040E251E40E941F0214
:10216000DC01CB01BC01CD010E944900DC01CB01A7
:102170009C8B8B8B0FC088EC90E09A8B898B898924
:102180009A890197F1F79A8B898B8B899C890197A2
:102190009C8B8B8B8B899C89009769F714C06D8908
:1021A0007E898F89988D0E944900DC01CB019C8B30
:1021B0008B8B8B899C89988B8F878F8598890197CA
:1021C000F1F7988B8F870E94B81186E00E948711E3
:1021D00080E090E0A0E8BFE38B879C87AD87BE8757
:1021E0006B857C858D859E8520E030E04AEF54E448
:1021F0000E941F02DC01CB018F839887A987BA87D1
:102200006F81788589859A8520E030E040E85FE33A
:102210000E94790388232CF481E090E09E838D83D3
:102220003FC06F81788589859A8520E03FEF4FE731
:1022300057E40E94190318164CF56B857C858D8533
:102240009E8520E030E040E251E40E941F02DC0164
:10225000CB01BC01CD010E944900DC01CB019E8372
:102260008D830FC088EC90E09C838B838B819C8155
:102270000197F1F79C838B838D819E8101979E83CB
:102280008D838D819E81009769F714C06F81788559
:1022900089859A850E944900DC01CB019E838D834C
:1022A0008D819E819A83898389819A810197F1F733
:1022B0009A838983E8960FB6F894DEBF0FBECDBF30
:1022C000CF91DF910895DF93CF930F92CDB7DEB713
:1022D000898380E064E041E00E94EB0780E065E0F4
:1022E00040E00E94EB078981982F92959F7080E0D3
:1022F000692F0E942C0C0E94680E80E069810E9468
:102300002C0C0E94680E0F90CF91DF910895DF93FF
:10231000CF930F92CDB7DEB7898380E064E040E0D1
:102320000E94EB0780E065E040E00E94EB078981B6
:10233000982F92959F7080E0692F0E942C0C0E942C
:10234000680E80E069810E942C0C0E94680E0F903C
:10235000CF91DF910895DF93CF930F92CDB7DEB782
:10236000898389810E9463110F90CF91DF91089535
:10237000DF93CF93CDB7DEB72E970FB6F894DEBFBD
:102380000FBECDBF81E00E94871180E090E0A0E009
:10239000B0E48B879C87AD87BE876B857C858D85F8
:1023A0009E8520E030E04AEF54E40E941F02DC01E9
:1023B000CB018F839887A987BA876F8178858985B4
:1023C0009A8520E030E040E85FE30E9479038823AB
:1023D0002CF481E090E09E838D833FC06F817885EF
:1023E00089859A8520E03FEF4FE757E40E94190363
:1023F00018164CF56B857C858D859E8520E030E038
:1024000040E251E40E941F02DC01CB01BC01CD017E
:102410000E944900DC01CB019E838D830FC088ECB4
:1024200090E09C838B838B819C810197F1F79C8347
:102430008B838D819E8101979E838D838D819E816B
:10244000009769F714C06F81788589859A850E9405
:102450004900DC01CB019E838D838D819E819A830F
:10246000898389819A810197F1F79A8389832E96CE
:102470000FB6F894DEBF0FBECDBFCF91DF910895A8
:10248000DF93CF93CDB7DEB72E970FB6F894DEBFAC
:102490000FBECDBF82E00E94871180E090E0A0E0F7
:1024A000B0E48B879C87AD87BE876B857C858D85E7
:1024B0009E8520E030E04AEF54E40E941F02DC01D8
:1024C000CB018F839887A987BA876F8178858985A3
:1024D0009A8520E030E040E85FE30E94790388239A
:1024E0002CF481E090E09E838D833FC06F817885DE
:1024F00089859A8520E03FEF4FE757E40E94190352
:1025000018164CF56B857C858D859E8520E030E026
:1025100040E251E40E941F02DC01CB01BC01CD016D
:102520000E944900DC01CB019E838D830FC088ECA3
:1025300090E09C838B838B819C810197F1F79C8336
:102540008B838D819E8101979E838D838D819E815A
:10255000009769F714C06F81788589859A850E94F4
:102560004900DC01CB019E838D838D819E819A83FE
:10257000898389819A810197F1F79A8389832E96BD
:102580000FB6F894DEBF0FBECDBFCF91DF91089597
:10259000DF93CF9300D0CDB7DEB79A8389830AC08B
:1025A000E981FA8180810E94631189819A81019673
:1025B0009A838983E981FA818081882389F70F9042
:1025C0000F90CF91DF910895DF93CF9300D000D08B
:1025D000CDB7DEB789836A838981833018F48A8115
:1025E000813118F00E94401219C08981282F30E0F3
:1025F0003C832B838B819C818130910531F02B8131
:102600003C812230310531F009C08A8181580E9415
:10261000871104C08A8181540E9487110F900F9006
:102620000F900F90CF91DF910895DF93CF9300D05B
:1026300000D0CDB7DEB79B838A836C838C81882FD3
:1026400090E00896880F991F880F991F880F991F8F
:102650000E9487110EC08981282F30E08A819B81DA
:10266000FC01E20FF31F80810E94631189818F5F5B
:1026700089838981883078F380E80E9487110F90E0
:102680000F900F900F90CF91DF910895DF93CF932C
:102690000F92CDB7DEB789838981883018F489819C
:1026A0000E9463110F90CF91DF910895EF92FF92F6
:1026B0000F931F93DF93CF93CDB7DEB728970FB655
:1026C000F894DEBF0FBECDBF6D837E838F83988766
:1026D00081E090E0A0E0B0E089839A83AB83BC8383
:1026E0008D819E81AF81B8850097A105B10519F450
:1026F00080E30E9463118D819E81AF81B885BB23E9
:102700000CF049C08DE20E9463118D819E81AF81E2
:10271000B885B095A095909581959F4FAF4FBF4FCD
:102720008D839E83AF83B88736C089819A81AB81C0
:10273000BC812AE030E040E050E0BC01CD010E94C5
:10274000CA207B018C018D819E81AF81B8852AE0F2
:1027500030E040E050E0BC01CD010E940B21DC01E3
:10276000CB018E0D9F1DA01FB11F89839A83AB8360
:10277000BC838D819E81AF81B8852AE030E040E046
:1027800050E0BC01CD010E940B21DA01C9018D830B
:102790009E83AF83B8878D819E81AF81B885009776
:1027A000A105B10511F623C089819A81AB81BC8155
:1027B0002AE030E040E050E0BC01CD010E94E92079
:1027C000DC01CB01805D0E94631189819A81AB811C
:1027D000BC812AE030E040E050E0BC01CD010E9425
:1027E000E920DA01C90189839A83AB83BC8389819B
:1027F0009A81AB81BC8181309105A105B105A1F61B
:1028000028960FB6F894DEBF0FBECDBFCF91DF91F3
:102810001F910F91FF90EF900895DF93CF93CDB765
:10282000DEB782E06FE00E94150A82E06FEF0E943F
:10283000590ACF91DF910895DF93CF9300D000D054
:10284000CDB7DEB783E08C8380E28B831A8236C0FB
:1028500082E06A8140E00E94EB07198221C08981F1
:10286000982F9C5F82E0692F0E940D098C838C81D8
:10287000882399F48A81482F50E08981282F30E0FD
:10288000CA01880F991F880F991F820F931FFC019F
:10289000E054FE4F80818B8306C089818F5F8983DE
:1028A00089818430E0F282E06A8141E00E94EB0796
:1028B0008C81882331F08A818F5F8A838A8184307A
:1028C00038F28B810F900F900F900F90CF91DF9186
:1028D00008950F931F93DF93CF93CDB7DEB7C75DF6
:1028E000D0400FB6F894DEBF0FBECDBFFE01E3545B
:1028F000FF4F82ED94E091838083FE01E754FF4F08
:1029000011821082FE01E154FF4F1082FE01E0545B
:10291000FF4F1082FE01EF53FF4F80E28083FE01E4
:10292000E854FF4F1082FE01E954FF4F10820E94CD
:10293000690F0E940D140E94A3050E94FF0583E009
:1029400063E041E00E94C90680E067E041E00E9448
:10295000C9060E94B81180E690E00E94C81282E089
:1029600061E00E94E4128CE690E00E94C812FE0131
:10297000ED54FF4F80E090E0AAE7B4E480839183B8
:10298000A283B3838E0101551F4FFE01ED54FF4F0B
:10299000608171818281938120E030E04AEF54E4CC
:1029A0000E941F02DC01CB01F80180839183A28386
:1029B000B383FE01E155FF4F608171818281938174
:1029C00020E030E040E85FE30E947903882344F48C
:1029D000FE01E355FF4F81E090E09183808364C066
:1029E000FE01E155FF4F608171818281938120E07A
:1029F0003FEF4FE757E40E94190318160CF043C04D
:102A0000FE01ED54FF4F608171818281938120E04E
:102A100030E040E251E40E941F02DC01CB018E0154
:102A200003551F4FBC01CD010E944900DC01CB01C1
:102A3000F801918380831FC0FE01E555FF4F88ECAC
:102A400090E091838083FE01E555FF4F8081918165
:102A50000197F1F7FE01E555FF4F91838083DE0179
:102A6000A355BF4FFE01E355FF4F80819181019730
:102A700011969C938E93FE01E355FF4F80819181C7
:102A80000097D1F627C08E0103551F4FFE01E15577
:102A9000FF4F60817181828193810E944900DC0136
:102AA000CB01F80191838083DE01A755BF4FFE0162
:102AB000E355FF4F808191818D939C93FE01E755F3
:102AC000FF4F808191810197F1F7FE01E755FF4F9C
:102AD00091838083FE01E554FF4F11821082FE0135
:102AE000E854FF4F1082DE01A754BF4FFE01E754A8
:102AF000FF4F8081918101968D939C930E94B81124
:102B00008BE790E00E94C81282E061E00E94E4122C
:102B10000E941C14FE01EF53FF4F8083FE01EF5310
:102B2000FF4F8081803308F4E4C0FE01EF53FF4F74
:102B300080818A3308F0DDC0DE01A854BF4FFE015A
:102B4000E854FF4F80818F5F8C93FE01E554FF4F67
:102B5000808191819C01220F331FC901880F991F29
:102B6000880F991F280F391FFE01EF53FF4F8081F7
:102B7000882F90E0820F931FFE01E554FF4FC0970E
:102B8000918380838AE20E946311FE01EB55FF4F1F
:102B900080E090E0AAE7B3E480839183A283B383CB
:102BA0008E010F551F4FFE01EB55FF4F6081718164
:102BB0008281938120E030E04AEF54E40E941F02BA
:102BC000DC01CB01F80180839183A283B383FE01F2
:102BD000EF55FF4F608171818281938120E030E069
:102BE00040E85FE30E947903882344F4FE01E15644
:102BF000FF4F81E090E09183808364C0FE01EF5538
:102C0000FF4F608171818281938120E03FEF4FE728
:102C100057E40E94190318160CF043C0FE01EB554F
:102C2000FF4F608171818281938120E030E040E23A
:102C300051E40E941F02DC01CB018E0101561F4F9F
:102C4000BC01CD010E944900DC01CB01F801918358
:102C500080831FC0FE01E356FF4F88EC90E0918314
:102C60008083FE01E356FF4F808191810197F1F748
:102C7000FE01E356FF4F91838083DE01A156BF4FD3
:102C8000FE01E156FF4F80819181019711969C933F
:102C90008E93FE01E156FF4F808191810097D1F61E
:102CA00028C08E0101561F4FFE01EF55FF4F608176
:102CB0007181828193810E944900DC01CB01F8017E
:102CC00091838083DE01A556BF4FFE01E156FF4F81
:102CD0008081918111969C938E93FE01E556FF4F62
:102CE000808191810197F1F7FE01E556FF4F9183B5
:102CF0008083FE01E854FF4F8081843009F008CFC3
:102D0000FE01E554FF4FDE01A354BF4F2081318106
:102D10008D919C9111972817390709F47DC1FE0107
:102D2000E754FF4F808191818330910508F074C191
:102D30000E94B8118AE890E00E94C812FE01E9568C
:102D4000FF4F80E090E0AAE7B4E480839183A28300
:102D5000B3838E010D561F4FFE01E956FF4F608170
:102D600071818281938120E030E04AEF54E40E9437
:102D70001F02DC01CB01F80180839183A283B3831E
:102D8000FE01ED56FF4F608171818281938120E0C9
:102D900030E040E85FE30E947903882344F4FE01B9
:102DA000EF56FF4F81E090E09183808364C0FE0185
:102DB000ED56FF4F608171818281938120E03FEF6A
:102DC0004FE757E40E94190318160CF043C0FE01A8
:102DD000E956FF4F608171818281938120E030E06C
:102DE00040E251E40E941F02DC01CB018E010F562C
:102DF0001F4FBC01CD010E944900DC01CB01F8014D
:102E0000918380831FC0FE01E157FF4F88EC90E063
:102E100091838083FE01E157FF4F8081918101976B
:102E2000F1F7FE01E157FF4F91838083DE01AF563A
:102E3000BF4FFE01EF56FF4F8081918101971196A0
:102E40009C938E93FE01EF56FF4F808191810097F6
:102E5000D1F627C08E010F561F4FFE01ED56FF4FD2
:102E600060817181828193810E944900DC01CB01E4
:102E7000F80191838083DE01A357BF4FFE01EF5617
:102E8000FF4F808191818D939C93FE01E357FF4F0B
:102E9000808191810197F1F7FE01E357FF4F918304
:102EA00080830E94B81189E990E00E94C812FE0157
:102EB000E757FF4F80E090E0AAE7B4E48083918376
:102EC000A283B3838E010B571F4FFE01E757FF4FBD
:102ED000608171818281938120E030E04AEF54E487
:102EE0000E941F02DC01CB01F80180839183A28341
:102EF000B383FE01EB57FF4F608171818281938123
:102F000020E030E040E85FE30E947903882344F446
:102F1000FE01ED57FF4F81E090E09183808364C014
:102F2000FE01EB57FF4F608171818281938120E028
:102F30003FEF4FE757E40E94190318160CF043C007
:102F4000FE01E757FF4F608171818281938120E00C
:102F500030E040E251E40E941F02DC01CB018E010F
:102F60000D571F4FBC01CD010E944900DC01CB0170
:102F7000F801918380831FC0FE01EF57FF4F88EC5B
:102F800090E091838083FE01EF57FF4F8081918114
:102F90000197F1F7FE01EF57FF4F91838083DE0128
:102FA000AD57BF4FFE01ED57FF4F808191810197D3
:102FB00011969C938E93FE01ED57FF4F8081918176
:102FC0000097D1F687CD8E010D571F4FFE01EB57AD
:102FD000FF4F60817181828193810E944900DC01F1
:102FE000CB01F80191838083DE01A158BF4FFE0120
:102FF000ED57FF4F8081918111969C938E93FE0136
:10300000E158FF4F808191810197F1F7FE01E1586E
:10301000FF4F918380835ECDFE01E554FF4FDE01BB
:10302000A354BF4F208131818D919C911197281716
:10303000390709F48FC1FE01E754FF4F8081918168
:103040008330910509F086C10E94B81183EA90E0AF
:103050000E94C812FE01E558FF4F80E090E0AAE709
:10306000B4E480839183A283B3838E0109581F4FF8
:10307000FE01E558FF4F608171818281938120E0DC
:1030800030E04AEF54E40E941F02DC01CB01F8015A
:1030900080839183A283B383FE01E958FF4F60814F
:1030A00071818281938120E030E040E85FE30E94FB
:1030B0007903882344F4FE01EB58FF4F81E090E050
:1030C0009183808364C0FE01E958FF4F6081718164
:1030D0008281938120E03FEF4FE757E40E9419037C
:1030E00018160CF043C0FE01E558FF4F6081718156
:1030F0008281938120E030E040E251E40E941F028F
:10310000DC01CB018E010B581F4FBC01CD010E9489
:103110004900DC01CB01F801918380831FC0FE01CF
:10312000ED58FF4F88EC90E091838083FE01ED58CD
:10313000FF4F808191810197F1F7FE01ED58FF4F1C
:1031400091838083DE01AB58BF4FFE01EB58FF4FE8
:1031500080819181019711969C938E93FE01EB588B
:10316000FF4F808191810097D1F627C08E010B58C7
:103170001F4FFE01E958FF4F608171818281938169
:103180000E944900DC01CB01F80191838083DE01BC
:10319000AF58BF4FFE01EB58FF4F808191818D9357
:1031A0009C93FE01EF58FF4F808191810197F1F7C9
:1031B000FE01EF58FF4F918380830E94B81181EB8D
:1031C00090E00E94C81283E063E041E00E94EB07B8
:1031D000FE01E359FF4F80E090E0AAE7B4E480836A
:1031E0009183A283B3838E0107591F4FFE01E359D8
:1031F000FF4F608171818281938120E030E04AEF4E
:1032000054E40E941F02DC01CB01F801808391830A
:10321000A283B383FE01E759FF4F608171818281F0
:10322000938120E030E040E85FE30E947903882347
:1032300044F4FE01E959FF4F81E090E091838083DF
:1032400064C0FE01E759FF4F6081718182819381E3
:1032500020E03FEF4FE757E40E94190318160CF0E7
:1032600043C0FE01E359FF4F6081718182819381E8
:1032700020E030E040E251E40E941F02DC01CB017B
:103280008E0109591F4FBC01CD010E944900DC018C
:10329000CB01F801918380831FC0FE01EB59FF4FE2
:1032A00088EC90E091838083FE01EB59FF4F808191
:1032B00091810197F1F7FE01EB59FF4F91838083D4
:1032C000DE01A959BF4FFE01E959FF4F808191816D
:1032D000019711969C938E93FE01E959FF4F8081CF
:1032E00091810097D1F628C08E0109591F4FFE0128
:1032F000E759FF4F60817181828193810E9449006B
:10330000DC01CB01F80191838083DE01AD59BF4F11
:10331000FE01E959FF4F8081918111969C938E9314
:10332000FE01ED59FF4F808191810197F1F7FE0178
:10333000ED59FF4F9183808380E090E0C952DF4FC9
:103340000FB6F894DEBF0FBECDBFCF91DF911F91B6
:103350000F910895FE01E554FF4FDE01A354BF4FC6
:10336000208131818D919C9111972817390709F09F
:10337000C5CB0E94B8118BEB90E00E94C812FE01F1
:10338000E15AFF4F80E090E0AAE7B4E480839183A4
:10339000A283B3838E01055A1F4FFE01E15AFF4FEE
:1033A000608171818281938120E030E04AEF54E4B2
:1033B0000E941F02DC01CB01F80180839183A2836C
:1033C000B383FE01E55AFF4F608171818281938151
:1033D00020E030E040E85FE30E947903882344F472
:1033E000FE01E75AFF4F81E090E09183808364C043
:1033F000FE01E55AFF4F608171818281938120E057
:103400003FEF4FE757E40E94190318160CF043C032
:10341000FE01E15AFF4F608171818281938120E03A
:1034200030E040E251E40E941F02DC01CB018E013A
:10343000075A1F4FBC01CD010E944900DC01CB019E
:10344000F801918380831FC0FE01E95AFF4F88EC89
:1034500090E091838083FE01E95AFF4F8081918142
:103460000197F1F7FE01E95AFF4F91838083DE0156
:10347000A75ABF4FFE01E75AFF4F80819181019704
:1034800011969C938E93FE01E75AFF4F80819181A4
:103490000097D1F627C08E01075A1F4FFE01E55A4B
:1034A000FF4F60817181828193810E944900DC011C
:1034B000CB01F80191838083DE01AB5ABF4FFE013F
:1034C000E75AFF4F808191818D939C93FE01EB5AC7
:1034D000FF4F808191810197F1F7FE01EB5AFF4F79
:1034E000918380830E94B8118FEC97E00E94ED05D4
:1034F00088EC90E00E94C812FE01EF5AFF4F80E076
:1035000090E0AAEFB3E480839183A283B3838E011A
:10351000035B1F4FFE01EF5AFF4F60817181828173
:10352000938120E030E04AEF54E40E941F02DC0166
:10353000CB01F80180839183A283B383FE01E35B17
:10354000FF4F608171818281938120E030E040E80B
:103550005FE30E947903882344F4FE01E55BFF4F9B
:1035600081E090E09183808364C0FE01E35BFF4FC4
:10357000608171818281938120E03FEF4FE757E4C2
:103580000E94190318160CF043C0FE01EF5AFF4FBA
:10359000608171818281938120E030E040E251E4DA
:1035A0000E941F02DC01CB018E01055B1F4FBC0195
:1035B000CD010E944900DC01CB01F8019183808399
:1035C0001FC0FE01E75BFF4F88EC90E09183808392
:1035D000FE01E75BFF4F808191810197F1F7FE01CA
:1035E000E75BFF4F91838083DE01A55BBF4FFE0148
:1035F000E55BFF4F80819181019711969C938E939B
:10360000FE01E55BFF4F808191810097D1F627C0D5
:103610008E01055B1F4FFE01E35BFF4F60817181EF
:10362000828193810E944900DC01CB01F8019183E2
:103630008083DE01A95BBF4FFE01E55BFF4F808108
:1036400091818D939C93FE01E95BFF4F8081918175
:103650000197F1F7FE01E95BFF4F918380830E94A0
:10366000B81180E067E041E00E94EB0787ED90E051
:103670000E94C812FE01ED5BFF4F80E090E0AAEFD0
:10368000B3E480839183A283B3838E01015C1F4FD7
:10369000FE01ED5BFF4F608171818281938120E0AB
:1036A00030E04AEF54E40E941F02DC01CB01F80134
:1036B00080839183A283B383FE01FF966081718131
:1036C0008281938120E030E040E85FE30E9479034B
:1036D00088232CF481E090E09EAF8DAF46C0FE01C0
:1036E000FF96608171818281938120E03FEF4FE7F7
:1036F00057E40E941903181664F5FE01ED5BFF4FB5
:10370000608171818281938120E030E040E251E468
:103710000E941F02DC01CB01BC01CD010E944900C7
:10372000DC01CB019EAF8DAF0FC088EC90E09CAF69
:103730008BAF8BAD9CAD0197F1F79CAF8BAF8DAD8F
:103740009EAD01979EAF8DAF8DAD9EAD009769F791
:1037500016C0FE01FF9660817181828193810E9473
:103760004900DC01CB019EAF8DAF8DAD9EAD9AAF10
:1037700089AF89AD9AAD0197F1F79AAF89AF0E94F1
:10378000B81184EE90E00E94C81282E061E00E94CD
:10379000E41284EF90E00E94C8120E941C14FE0103
:1037A000EF53FF4F8083FE01EF53FF4F8081813342
:1037B000A0F3FE01EF53FF4F8081843370F7FE01C9
:1037C000EF53FF4F8081FE01E954FF4F8053808308
:1037D0000E94B811FE01E954FF4F8081282F30E08C
:1037E000CA52DF4F39832883C65DD040CA52DF4FAB
:1037F00088819981C65DD04082309105F9F0CA5226
:10380000DF4FE881F981C65DD040E330F10519F161
:10381000CA52DF4F28813981C65DD0402130310541
:1038200031F58FEF90E00E94C81282E061E00E94C3
:10383000E4128EE091E00E94C81219C08DE191E07F
:103840000E94C81282E061E00E94E4128DE291E0E1
:103850000E94C8120CC08DE391E00E94C81282E061
:1038600061E00E94E4128EE491E00E94C8120E947E
:103870001C14FE01EF53FF4F8083FE01EF53FF4FF7
:103880008081813309F0E7C0FE01E954FF4F808158
:10389000E82FF0E0CC52DF4FF983E883C45DD040DD
:1038A000CC52DF4F28813981C45DD04022303105B0
:1038B00009F453C0CC52DF4F88819981C45DD04058
:1038C0008330910509F488C0CC52DF4FE881F9813B
:1038D000C45DD040E130F10509F07ACFFE01E95432
:1038E000FF4F8081882F90E09C0121503040C9011A
:1038F000880F991F820F931FFC01E053FE4F8081B8
:10390000CD52DF4F1882C35DD040813031F0F1E0FD
:10391000CD52DF4FF883C35DD040CD52DF4F2881B9
:10392000C35DD0402093D0018091D001882339F02D
:1039300030E3CE52DF4F3883C25DD04006C081E312
:10394000CE52DF4F8883C25DD040CE52DF4F888198
:10395000C25DD0400E94A3063BCFFE01E954FF4F59
:103960008081882F90E09C0121503040C901880F50
:10397000991F820F931FFC01E053FE4F8081CF52AD
:10398000DF4F1882C15DD040813031F091E0CF52DD
:10399000DF4F9883C15DD040CF52DF4FE881C15DDA
:1039A000D040E093D3018091D301882339F0F3E331
:1039B000C053DF4FF883C05DD04006C024E3C0533E
:1039C000DF4F2883C05DD040C053DF4F8881C05D8A
:1039D000D0400E94A306FCCEFE01E954FF4F808137
:1039E000882F90E09C0121503040C901880F991F19
:1039F000820F931FFC01E053FE4F8081C153DF4FC4
:103A00001882CF5CD040813031F031E0C153DF4FBC
:103A10003883CF5CD040C153DF4F8881CF5CD0402A
:103A20008093D6018091D601882339F096E3C25362
:103A3000DF4F9883CE5CD04006C0E5E3C253DF4F32
:103A4000E883CE5CD040C253DF4F8881CE5CD0404B
:103A50000E94A306BDCEFE01EF53FF4F808182334B
:103A600009F044C1FE01E954FF4F8081282F30E066
:103A7000C453DF4F39832883CC5CD040C453DF4F1D
:103A800088819981CC5CD0408230910509F477CE51
:103A9000C453DF4FE881F981CC5CD040E330F105BD
:103AA00009F4F5C0C453DF4F28813981CC5CD04084
:103AB0002130310509F08CCEFE01EF53FF4F89E331
:103AC00080830E94B8118EE591E00E94C81280E0C8
:103AD00090E0AAE7B3E48DAB9EABAFABB8AF6DA9F6
:103AE0007EA98FA998AD20E030E04AEF54E40E940F
:103AF0001F02DC01CB0189AB9AABABABBCAB69A9B4
:103B00007AA98BA99CA920E030E040E85FE30E94FD
:103B1000790388232CF481E090E098AB8FA73FC015
:103B200069A97AA98BA99CA920E03FEF4FE757E448
:103B30000E94190318164CF56DA97EA98FA998AD9E
:103B400020E030E040E251E40E941F02DC01CB01A2
:103B5000BC01CD010E944900DC01CB0198AB8FA7CD
:103B60000FC088EC90E09EA78DA78DA59EA501971C
:103B7000F1F79EA78DA78FA598A9019798AB8FA75E
:103B80008FA598A9009769F714C069A97AA98BA98C
:103B90009CA90E944900DC01CB0198AB8FA78FA59F
:103BA00098A99CA78BA78BA59CA50197F1F79CA72B
:103BB0008BA70E94B8118CE691E00E94C81282E0A7
:103BC00061E00E94E41288E791E00E94C812FE01C1
:103BD000EF53FF4F80E280830E941C14FE01EF53DD
:103BE000FF4F8083FE01EF53FF4F8081E82FF0E00D
:103BF000C653DF4FF983E883CA5CD040C653DF4F1A
:103C000028813981CA5CD04023333105C1F1C653C4
:103C1000DF4F88819981CA5CD040843391059CF440
:103C2000C653DF4FE881F981CA5CD040E133F1052A
:103C3000F1F0C653DF4F28813981CA5CD04022336E
:103C40003105C9F0C4CFC653DF4F88819981CA5C62
:103C5000D04084339105B9F0C653DF4FE881F98134
:103C6000CA5CD040E533F10509F4B2CDB0CF8CE4A5
:103C70000E94A306ACCF8DE40E94A306A8CF88E4DF
:103C80000E94A306A4CF83E50E94A306A0CF809143
:103C9000D701C753DF4F1882C95CD040813031F063
:103CA000F1E0C753DF4FF883C95CD040C753DF4F03
:103CB0002881C95CD0402093D7018091D701882307
:103CC00039F037E3C853DF4F3883C85CD04006C0B3
:103CD00087E5C853DF4F8883C85CD040C853DF4FA7
:103CE0008881C85CD0400E94A30672CDFE01EF53CC
:103CF000FF4F8081833309F045C2FE01E954FF4F35
:103D00008081E82FF0E0CA53DF4FF983E883C65C77
:103D1000D040CA53DF4F28813981C65CD040223061
:103D2000310509F443C0CA53DF4F88819981C65CCD
:103D3000D0408330910509F4F6C1CA53DF4FE881C2
:103D4000F981C65CD040E130F10509F041CD8091A8
:103D5000D201CB53DF4F1882C55CD040813031F0A7
:103D6000F1E0CB53DF4FF883C55CD040CB53DF4F3E
:103D70002881C55CD0402093D2018091D201882354
:103D800039F032E3CC53DF4F3883C45CD04006C0F7
:103D900084E5CC53DF4F8883C45CD040CC53DF4FE5
:103DA0008881C45CD0400E94A30612CDFE01E0547D
:103DB000FF4F108280E090E0A8ECB2E48FA398A7B8
:103DC000A9A7BAA76FA178A589A59AA520E030E098
:103DD0004AEF54E40E941F02DC01CB018BA39CA399
:103DE000ADA3BEA36BA17CA18DA19EA120E030E07C
:103DF00040E85FE30E94790388232CF481E090E09F
:103E00009AA389A33FC06BA17CA18DA19EA120E0B4
:103E10003FEF4FE757E40E94190318164CF56FA1C6
:103E200078A589A59AA520E030E040E251E40E94FF
:103E30001F02DC01CB01BC01CD010E944900DC0165
:103E4000CB019AA389A30FC088EC90E098A38F8F31
:103E50008F8D98A10197F1F798A38F8F89A19AA1CF
:103E600001979AA389A389A19AA1009769F714C021
:103E70006BA17CA18DA19EA10E944900DC01CB0118
:103E80009AA389A389A19AA19E8F8D8F8D8D9E8DD6
:103E90000197F1F79E8F8D8FFE01EF53FF4F82E464
:103EA00080830E94B81186E891E00E94C81282E0E7
:103EB00067E00E94E4120E941C14FE01EF53FF4FC2
:103EC0008083FE01EF53FF4F8081803308F4A3C04D
:103ED000FE01EF53FF4F80818A3308F09CC0FE0142
:103EE000E054FF4F80818F5FFE01E054FF4F8083DD
:103EF000FE01EF53FF4F80810E946311FE01E154E8
:103F0000FF4F8081882F90E09C01220F331FC90151
:103F1000880F991F880F991F820F931F982FFE01FA
:103F2000EF53FF4F8081890F8053FE01E154FF4F13
:103F3000808380E090E0AAE7B3E4898F9A8FAB8F0B
:103F4000BC8F698D7A8D8B8D9C8D20E030E04AEF9F
:103F500054E40E941F02DC01CB018D8B9E8BAF8B42
:103F6000B88F6D897E898F89988D20E030E040E898
:103F70005FE30E94790388232CF481E090E09C8B1E
:103F80008B8B3FC06D897E898F89988D20E03FEFB4
:103F90004FE757E40E94190318164CF5698D7A8D86
:103FA0008B8D9C8D20E030E040E251E40E941F02A6
:103FB000DC01CB01BC01CD010E944900DC01CB0139
:103FC0009C8B8B8B0FC088EC90E09A8B898B8989B6
:103FD0009A890197F1F79A8B898B8B899C89019734
:103FE0009C8B8B8B8B899C89009769F714C06D899A
:103FF0007E898F89988D0E944900DC01CB019C8BC2
:104000008B8B8B899C89988B8F878F85988901975B
:10401000F1F7988B8F87FE01E054FF4F808182304B
:1040200009F049CF0E94B81187E991E00E94C812B7
:1040300080E090E0AAEFB3E48B879C87AD87BE87D2
:104040006B857C858D859E8520E030E04AEF54E4C9
:104050000E941F02DC01CB018F839887A987BA8752
:104060006F81788589859A8520E030E040E85FE3BC
:104070000E94790388232CF481E090E09E838D8355
:104080003FC06F81788589859A8520E03FEF4FE7B3
:1040900057E40E94190318164CF56B857C858D85B5
:1040A0009E8520E030E040E251E40E941F02DC01E6
:1040B000CB01BC01CD010E944900DC01CB019E83F4
:1040C0008D830FC088EC90E09C838B838B819C81D7
:1040D0000197F1F79C838B838D819E8101979E834D
:1040E0008D838D819E81009769F714C06F817885DB
:1040F00089859A850E944900DC01CB019E838D83CE
:104100008D819E819A83898389819A810197F1F7B4
:104110009A8389830E94B811FE01E154FF4F808188
:104120000E94A30655CB8091D801CD53DF4F188252
:10413000C35CD040813031F091E0CD53DF4F9883A4
:10414000C35CD040CD53DF4FE881C35CD040E093E7
:10415000D8018091D801882339F0F8E3CE53DF4F9E
:10416000F883C25CD04006C028E5CE53DF4F2883D9
:10417000C25CD040CE53DF4F8881C25CD0400E94E9
:10418000A30626CBFE01EF53FF4F8081843309F451
:10419000F6CA6DCB629FD001739FF001829FE00D44
:1041A000F11D649FE00DF11D929FF00D839FF00DB6
:1041B000749FF00D659FF00D9927729FB00DE11D62
:1041C000F91F639FB00DE11DF91FBD01CF0111243F
:1041D0000895A1E21A2EAA1BBB1BFD010DC0AA1F48
:1041E000BB1FEE1FFF1FA217B307E407F50720F060
:1041F000A21BB30BE40BF50B661F771F881F991FDB
:104200001A9469F760957095809590959B01AC0123
:10421000BD01CF01089597FB092E05260ED057FD4D
:1042200004D0D7DF0AD0001C38F450954095309563
:1042300021953F4F4F4F5F4F0895F6F7909580952A
:10424000709561957F4F8F4F9F4F08952F923F92AA
:104250004F925F926F927F928F929F92AF92BF9296
:10426000CF92DF92EF92FF920F931F93CF93DF9342
:10427000CDB7DEB7CA1BDB0B0FB6F894DEBF0FBE9F
:10428000CDBF09942A88398848885F846E847D84EC
:104290008C849B84AA84B984C884DF80EE80FD80EE
:1042A0000C811B81AA81B981CE0FD11D0FB6F89464
:0E42B000DEBF0FBECDBFED010895F894FFCF25
:1042BE0057656C636F6D6520546F20004F757220CB
:1042CE00536D61727420486F6D6500456E74657232
:1042DE002050617373776F72640057726F6E672030
:1042EE0050617373776F72640054727920616761E5
:1042FE00696E004E6F204D6F726520547269657342
:10430E0000416C65727473204F6E0057656C636F5D
:10431E006D6520486F6D6500446F6F722069732064
:10432E006F70656E6564004C6967687420537973AD
:10433E00204F4E00312E526F6F6D3120322E526F44
:10434E006F6D3200332E42617468726F6F6D003183
:10435E002E4C696768742020322E46616E00332E13
:10436E00545620202020342E4261636B00312E4C97
:10437E00696768742020322E4261636B00332E41D0
:10438E00697220436F6E646974696F6E00312E4CD2
:10439E00696768742020322E4D6F746F7200332E51
:1043AE0048656174657220342E6261636B00436FE1
:1043BE006E74726F6C20737065656400312E4C20C4
:1043CE00322E4D20332E4800342E53746F7020350C
:1043DE002E6261636B005365742054656D70657257
:1043EE0061747572653A0054656D706572617475AD
:1043FE0072652073656E74000000000000000000FE
:10440E003F065B4F666D7D477F6F777F393F7971D2
:10441E003738392F3435362A3132332D43303D2B50
:00000001FF
